{
  "contractName": "Driver",
  "abi": [
    {
      "anonymous": false,
      "inputs": [
        {
          "indexed": false,
          "internalType": "address",
          "name": "driver",
          "type": "address"
        },
        {
          "indexed": false,
          "internalType": "string",
          "name": "ifname",
          "type": "string"
        },
        {
          "indexed": false,
          "internalType": "uint256",
          "name": "charges",
          "type": "uint256"
        }
      ],
      "name": "LogofDrivers",
      "type": "event"
    },
    {
      "anonymous": false,
      "inputs": [
        {
          "indexed": false,
          "internalType": "address",
          "name": "driver",
          "type": "address"
        },
        {
          "indexed": false,
          "internalType": "string",
          "name": "message",
          "type": "string"
        },
        {
          "indexed": false,
          "internalType": "address",
          "name": "customer",
          "type": "address"
        }
      ],
      "name": "NotifyDriver",
      "type": "event"
    },
    {
      "anonymous": false,
      "inputs": [
        {
          "indexed": false,
          "internalType": "address",
          "name": "driver",
          "type": "address"
        },
        {
          "indexed": false,
          "internalType": "string",
          "name": "message",
          "type": "string"
        }
      ],
      "name": "NotifyDriverPayment",
      "type": "event"
    },
    {
      "anonymous": false,
      "inputs": [
        {
          "indexed": true,
          "internalType": "address",
          "name": "previousOwner",
          "type": "address"
        },
        {
          "indexed": true,
          "internalType": "address",
          "name": "newOwner",
          "type": "address"
        }
      ],
      "name": "OwnershipTransferred",
      "type": "event"
    },
    {
      "inputs": [
        {
          "internalType": "uint256",
          "name": "",
          "type": "uint256"
        }
      ],
      "name": "CustomdriverList",
      "outputs": [
        {
          "internalType": "address",
          "name": "",
          "type": "address"
        }
      ],
      "stateMutability": "view",
      "type": "function"
    },
    {
      "inputs": [
        {
          "internalType": "uint256",
          "name": "",
          "type": "uint256"
        }
      ],
      "name": "driverList",
      "outputs": [
        {
          "internalType": "address",
          "name": "",
          "type": "address"
        }
      ],
      "stateMutability": "view",
      "type": "function"
    },
    {
      "inputs": [],
      "name": "owner",
      "outputs": [
        {
          "internalType": "address",
          "name": "",
          "type": "address"
        }
      ],
      "stateMutability": "view",
      "type": "function"
    },
    {
      "inputs": [
        {
          "internalType": "address",
          "name": "",
          "type": "address"
        }
      ],
      "name": "profile",
      "outputs": [
        {
          "internalType": "string",
          "name": "fName",
          "type": "string"
        },
        {
          "internalType": "string",
          "name": "lName",
          "type": "string"
        },
        {
          "internalType": "string",
          "name": "city",
          "type": "string"
        },
        {
          "internalType": "string",
          "name": "carName",
          "type": "string"
        },
        {
          "internalType": "string",
          "name": "carType",
          "type": "string"
        },
        {
          "internalType": "uint256",
          "name": "payPerKmINwei",
          "type": "uint256"
        },
        {
          "internalType": "bool",
          "name": "isEngaged",
          "type": "bool"
        },
        {
          "internalType": "uint256",
          "name": "NoOfRides",
          "type": "uint256"
        }
      ],
      "stateMutability": "view",
      "type": "function"
    },
    {
      "inputs": [],
      "name": "renounceOwnership",
      "outputs": [],
      "stateMutability": "nonpayable",
      "type": "function"
    },
    {
      "inputs": [
        {
          "internalType": "address",
          "name": "newOwner",
          "type": "address"
        }
      ],
      "name": "transferOwnership",
      "outputs": [],
      "stateMutability": "nonpayable",
      "type": "function"
    },
    {
      "inputs": [],
      "name": "setPayableOwner",
      "outputs": [],
      "stateMutability": "nonpayable",
      "type": "function"
    },
    {
      "inputs": [
        {
          "internalType": "address",
          "name": "driver",
          "type": "address"
        },
        {
          "internalType": "string",
          "name": "ifname",
          "type": "string"
        },
        {
          "internalType": "string",
          "name": "ilname",
          "type": "string"
        },
        {
          "internalType": "string",
          "name": "icity",
          "type": "string"
        },
        {
          "internalType": "string",
          "name": "icarName",
          "type": "string"
        },
        {
          "internalType": "string",
          "name": "icarType",
          "type": "string"
        },
        {
          "internalType": "uint256",
          "name": "ipayPerKmINwei",
          "type": "uint256"
        }
      ],
      "name": "addYourProfile",
      "outputs": [],
      "stateMutability": "payable",
      "type": "function"
    },
    {
      "inputs": [],
      "name": "getDriverCount",
      "outputs": [
        {
          "internalType": "uint256",
          "name": "",
          "type": "uint256"
        }
      ],
      "stateMutability": "view",
      "type": "function"
    },
    {
      "inputs": [
        {
          "internalType": "address",
          "name": "driver",
          "type": "address"
        },
        {
          "internalType": "uint256",
          "name": "ipayPerKmINwei",
          "type": "uint256"
        }
      ],
      "name": "updatePerkmCharge",
      "outputs": [],
      "stateMutability": "payable",
      "type": "function"
    },
    {
      "inputs": [
        {
          "internalType": "address",
          "name": "driver",
          "type": "address"
        },
        {
          "internalType": "string",
          "name": "icarName",
          "type": "string"
        },
        {
          "internalType": "string",
          "name": "icarType",
          "type": "string"
        }
      ],
      "name": "updateCarDetails",
      "outputs": [],
      "stateMutability": "payable",
      "type": "function"
    },
    {
      "inputs": [
        {
          "internalType": "address",
          "name": "driver",
          "type": "address"
        },
        {
          "internalType": "string",
          "name": "icity",
          "type": "string"
        }
      ],
      "name": "updateCityDetails",
      "outputs": [],
      "stateMutability": "payable",
      "type": "function"
    },
    {
      "inputs": [
        {
          "internalType": "string",
          "name": "_city",
          "type": "string"
        }
      ],
      "name": "driverLoop",
      "outputs": [],
      "stateMutability": "nonpayable",
      "type": "function"
    },
    {
      "inputs": [
        {
          "internalType": "address payable",
          "name": "account",
          "type": "address"
        }
      ],
      "name": "EndJourney",
      "outputs": [
        {
          "internalType": "address",
          "name": "",
          "type": "address"
        },
        {
          "internalType": "uint256",
          "name": "",
          "type": "uint256"
        }
      ],
      "stateMutability": "payable",
      "type": "function"
    },
    {
      "inputs": [
        {
          "internalType": "address",
          "name": "driver_add",
          "type": "address"
        },
        {
          "internalType": "address",
          "name": "cust_add",
          "type": "address"
        }
      ],
      "name": "EngageDriver",
      "outputs": [],
      "stateMutability": "nonpayable",
      "type": "function"
    },
    {
      "inputs": [
        {
          "internalType": "address",
          "name": "add",
          "type": "address"
        }
      ],
      "name": "showBal",
      "outputs": [
        {
          "internalType": "uint256",
          "name": "",
          "type": "uint256"
        }
      ],
      "stateMutability": "view",
      "type": "function"
    },
    {
      "inputs": [
        {
          "internalType": "address",
          "name": "driver_add",
          "type": "address"
        },
        {
          "internalType": "address",
          "name": "cust_add",
          "type": "address"
        }
      ],
      "name": "cancelRide",
      "outputs": [],
      "stateMutability": "nonpayable",
      "type": "function"
    },
    {
      "inputs": [],
      "name": "kill",
      "outputs": [],
      "stateMutability": "nonpayable",
      "type": "function"
    }
  ],
  "bytecode": "0x608060405234801561001057600080fd5b5060006100216100c460201b60201c565b9050806000806101000a81548173ffffffffffffffffffffffffffffffffffffffff021916908373ffffffffffffffffffffffffffffffffffffffff1602179055508073ffffffffffffffffffffffffffffffffffffffff16600073ffffffffffffffffffffffffffffffffffffffff167f8be0079c531659141344cd1fd0a4f28419497f9722a3daafe3b4186f6b6457e060405160405180910390a3506100d1565b6000803390508091505090565b612648806100e06000396000f3fe6080604052600436106101095760003560e01c80638da5cb5b11610095578063a25d783911610064578063a25d783914610322578063bff027741461034b578063d0a2ff8014610367578063efbcb9ea14610383578063f2fde38b146103c057610109565b80638da5cb5b1461025f5780639425634e1461028a57806398a3f6c6146102a15780639dd9d0fd146102de57610109565b80634a6a7a6d116100dc5780634a6a7a6d146101be5780636e79c1a7146101da578063715018a6146102035780637ee06c1f1461021a5780637ef01b781461023657610109565b80630d1e11641461010e57806320c887391461014b5780632be17d261461017c57806341c0e1b5146101a7575b600080fd5b34801561011a57600080fd5b5061013560048036038101906101309190611897565b6103e9565b6040516101429190611905565b60405180910390f35b6101656004803603810190610160919061195e565b610428565b60405161017392919061199a565b60405180910390f35b34801561018857600080fd5b5061019161051c565b60405161019e91906119c3565b60405180910390f35b3480156101b357600080fd5b506101bc610529565b005b6101d860048036038101906101d39190611b50565b6105d7565b005b3480156101e657600080fd5b5061020160048036038101906101fc9190611bdb565b6106fb565b005b34801561020f57600080fd5b50610218610793565b005b610234600480360381019061022f9190611c1b565b6108e6565b005b34801561024257600080fd5b5061025d60048036038101906102589190611bdb565b610c18565b005b34801561026b57600080fd5b50610274610cb0565b6040516102819190611905565b60405180910390f35b34801561029657600080fd5b5061029f610cd9565b005b3480156102ad57600080fd5b506102c860048036038101906102c39190611897565b610dbe565b6040516102d59190611905565b60405180910390f35b3480156102ea57600080fd5b5061030560048036038101906103009190611d49565b610dfd565b604051610319989796959493929190611e19565b60405180910390f35b34801561032e57600080fd5b5061034960048036038101906103449190611eba565b6110fa565b005b61036560048036038101906103609190611f03565b611432565b005b610381600480360381019061037c9190611f5f565b6114fe565b005b34801561038f57600080fd5b506103aa60048036038101906103a59190611d49565b6115ba565b6040516103b791906119c3565b60405180910390f35b3480156103cc57600080fd5b506103e760048036038101906103e29190611d49565b6115db565b005b600281815481106103f957600080fd5b906000526020600020016000915054906101000a900473ffffffffffffffffffffffffffffffffffffffff1681565b6000807f8004dfa6794eaed1ede4bb1f75b8727de57b3a646a458c9118ff5e94568389698360405161045a9190612070565b60405180910390a16000600460008573ffffffffffffffffffffffffffffffffffffffff1673ffffffffffffffffffffffffffffffffffffffff16815260200190815260200160002060060160006101000a81548160ff0219169083151502179055506001600460008573ffffffffffffffffffffffffffffffffffffffff1673ffffffffffffffffffffffffffffffffffffffff168152602001908152602001600020600701600082825461051091906120cd565b92505081905550915091565b6000600180549050905090565b61053161179d565b73ffffffffffffffffffffffffffffffffffffffff1660008054906101000a900473ffffffffffffffffffffffffffffffffffffffff1673ffffffffffffffffffffffffffffffffffffffff16146105be576040517f08c379a00000000000000000000000000000000000000000000000000000000081526004016105b59061216f565b60405180910390fd5b3373ffffffffffffffffffffffffffffffffffffffff16ff5b81600460008573ffffffffffffffffffffffffffffffffffffffff1673ffffffffffffffffffffffffffffffffffffffff168152602001908152602001600020600301908051906020019061062d9291906117aa565b5080600460008573ffffffffffffffffffffffffffffffffffffffff1673ffffffffffffffffffffffffffffffffffffffff16815260200190815260200160002060040190805190602001906106849291906117aa565b50600360009054906101000a900473ffffffffffffffffffffffffffffffffffffffff1673ffffffffffffffffffffffffffffffffffffffff166108fc670de0b6b3a76400009081150290604051600060405180830381858888f193505050501580156106f5573d6000803e3d6000fd5b50505050565b6001600460008473ffffffffffffffffffffffffffffffffffffffff1673ffffffffffffffffffffffffffffffffffffffff16815260200190815260200160002060060160006101000a81548160ff0219169083151502179055507fdabd7894826c7a56f6256b4948de8631d2b3f9648ee97188d8ccbc9a89ad8dd58282604051610787929190612201565b60405180910390a15050565b61079b61179d565b73ffffffffffffffffffffffffffffffffffffffff1660008054906101000a900473ffffffffffffffffffffffffffffffffffffffff1673ffffffffffffffffffffffffffffffffffffffff1614610828576040517f08c379a000000000000000000000000000000000000000000000000000000000815260040161081f9061216f565b60405180910390fd5b600073ffffffffffffffffffffffffffffffffffffffff1660008054906101000a900473ffffffffffffffffffffffffffffffffffffffff1673ffffffffffffffffffffffffffffffffffffffff167f8be0079c531659141344cd1fd0a4f28419497f9722a3daafe3b4186f6b6457e060405160405180910390a360008060006101000a81548173ffffffffffffffffffffffffffffffffffffffff021916908373ffffffffffffffffffffffffffffffffffffffff160217905550565b6001879080600181540180825580915050600190039060005260206000200160009091909190916101000a81548173ffffffffffffffffffffffffffffffffffffffff021916908373ffffffffffffffffffffffffffffffffffffffff16021790555085600460008973ffffffffffffffffffffffffffffffffffffffff1673ffffffffffffffffffffffffffffffffffffffff168152602001908152602001600020600001908051906020019061099f9291906117aa565b5084600460008973ffffffffffffffffffffffffffffffffffffffff1673ffffffffffffffffffffffffffffffffffffffff16815260200190815260200160002060010190805190602001906109f69291906117aa565b5083600460008973ffffffffffffffffffffffffffffffffffffffff1673ffffffffffffffffffffffffffffffffffffffff1681526020019081526020016000206002019080519060200190610a4d9291906117aa565b5082600460008973ffffffffffffffffffffffffffffffffffffffff1673ffffffffffffffffffffffffffffffffffffffff1681526020019081526020016000206003019080519060200190610aa49291906117aa565b5081600460008973ffffffffffffffffffffffffffffffffffffffff1673ffffffffffffffffffffffffffffffffffffffff1681526020019081526020016000206004019080519060200190610afb9291906117aa565b5080600460008973ffffffffffffffffffffffffffffffffffffffff1673ffffffffffffffffffffffffffffffffffffffff168152602001908152602001600020600501819055506000600460008973ffffffffffffffffffffffffffffffffffffffff1673ffffffffffffffffffffffffffffffffffffffff16815260200190815260200160002060060160006101000a81548160ff021916908315150217905550600360009054906101000a900473ffffffffffffffffffffffffffffffffffffffff1673ffffffffffffffffffffffffffffffffffffffff166108fc674563918244f400009081150290604051600060405180830381858888f19350505050158015610c0e573d6000803e3d6000fd5b5050505050505050565b6000600460008473ffffffffffffffffffffffffffffffffffffffff1673ffffffffffffffffffffffffffffffffffffffff16815260200190815260200160002060060160006101000a81548160ff0219169083151502179055507fdabd7894826c7a56f6256b4948de8631d2b3f9648ee97188d8ccbc9a89ad8dd58282604051610ca49291906122af565b60405180910390a15050565b60008060009054906101000a900473ffffffffffffffffffffffffffffffffffffffff16905090565b610ce161179d565b73ffffffffffffffffffffffffffffffffffffffff1660008054906101000a900473ffffffffffffffffffffffffffffffffffffffff1673ffffffffffffffffffffffffffffffffffffffff1614610d6e576040517f08c379a0000000000000000000000000000000000000000000000000000000008152600401610d659061216f565b60405180910390fd5b6000610d78610cb0565b905080600360006101000a81548173ffffffffffffffffffffffffffffffffffffffff021916908373ffffffffffffffffffffffffffffffffffffffff16021790555050565b60018181548110610dce57600080fd5b906000526020600020016000915054906101000a900473ffffffffffffffffffffffffffffffffffffffff1681565b6004602052806000526040600020600091509050806000018054610e209061231a565b80601f0160208091040260200160405190810160405280929190818152602001828054610e4c9061231a565b8015610e995780601f10610e6e57610100808354040283529160200191610e99565b820191906000526020600020905b815481529060010190602001808311610e7c57829003601f168201915b505050505090806001018054610eae9061231a565b80601f0160208091040260200160405190810160405280929190818152602001828054610eda9061231a565b8015610f275780601f10610efc57610100808354040283529160200191610f27565b820191906000526020600020905b815481529060010190602001808311610f0a57829003601f168201915b505050505090806002018054610f3c9061231a565b80601f0160208091040260200160405190810160405280929190818152602001828054610f689061231a565b8015610fb55780601f10610f8a57610100808354040283529160200191610fb5565b820191906000526020600020905b815481529060010190602001808311610f9857829003601f168201915b505050505090806003018054610fca9061231a565b80601f0160208091040260200160405190810160405280929190818152602001828054610ff69061231a565b80156110435780601f1061101857610100808354040283529160200191611043565b820191906000526020600020905b81548152906001019060200180831161102657829003601f168201915b5050505050908060040180546110589061231a565b80601f01602080910402602001604051908101604052809291908181526020018280546110849061231a565b80156110d15780601f106110a6576101008083540402835291602001916110d1565b820191906000526020600020905b8154815290600101906020018083116110b457829003601f168201915b5050505050908060050154908060060160009054906101000a900460ff16908060070154905088565b60005b600180549050811015611292578160405160200161111b9190612388565b6040516020818303038152906040528051906020012060046000600184815481106111495761114861239f565b5b9060005260206000200160009054906101000a900473ffffffffffffffffffffffffffffffffffffffff1673ffffffffffffffffffffffffffffffffffffffff1673ffffffffffffffffffffffffffffffffffffffff1681526020019081526020016000206002016040516020016111c19190612462565b60405160208183030381529060405280519060200120141561127f576002600182815481106111f3576111f261239f565b5b9060005260206000200160009054906101000a900473ffffffffffffffffffffffffffffffffffffffff169080600181540180825580915050600190039060005260206000200160009091909190916101000a81548173ffffffffffffffffffffffffffffffffffffffff021916908373ffffffffffffffffffffffffffffffffffffffff1602179055505b808061128a90612479565b9150506110fd565b5060005b60028054905081101561142e577fa2aa64e2e0a3910d48a219be4a951c5db794bdf5d67dba6fdbc5a4b313ce2773600282815481106112d8576112d761239f565b5b9060005260206000200160009054906101000a900473ffffffffffffffffffffffffffffffffffffffff16600460006002858154811061131b5761131a61239f565b5b9060005260206000200160009054906101000a900473ffffffffffffffffffffffffffffffffffffffff1673ffffffffffffffffffffffffffffffffffffffff1673ffffffffffffffffffffffffffffffffffffffff168152602001908152602001600020600001600460006002868154811061139b5761139a61239f565b5b9060005260206000200160009054906101000a900473ffffffffffffffffffffffffffffffffffffffff1673ffffffffffffffffffffffffffffffffffffffff1673ffffffffffffffffffffffffffffffffffffffff1681526020019081526020016000206005015460405161141393929190612542565b60405180910390a1808061142690612479565b915050611296565b5050565b80600460008473ffffffffffffffffffffffffffffffffffffffff1673ffffffffffffffffffffffffffffffffffffffff16815260200190815260200160002060020190805190602001906114889291906117aa565b50600360009054906101000a900473ffffffffffffffffffffffffffffffffffffffff1673ffffffffffffffffffffffffffffffffffffffff166108fc670de0b6b3a76400009081150290604051600060405180830381858888f193505050501580156114f9573d6000803e3d6000fd5b505050565b80600460008473ffffffffffffffffffffffffffffffffffffffff1673ffffffffffffffffffffffffffffffffffffffff16815260200190815260200160002060050181905550600360009054906101000a900473ffffffffffffffffffffffffffffffffffffffff1673ffffffffffffffffffffffffffffffffffffffff166108fc670de0b6b3a76400009081150290604051600060405180830381858888f193505050501580156115b5573d6000803e3d6000fd5b505050565b60008173ffffffffffffffffffffffffffffffffffffffff16319050919050565b6115e361179d565b73ffffffffffffffffffffffffffffffffffffffff1660008054906101000a900473ffffffffffffffffffffffffffffffffffffffff1673ffffffffffffffffffffffffffffffffffffffff1614611670576040517f08c379a00000000000000000000000000000000000000000000000000000000081526004016116679061216f565b60405180910390fd5b600073ffffffffffffffffffffffffffffffffffffffff168173ffffffffffffffffffffffffffffffffffffffff1614156116e0576040517f08c379a00000000000000000000000000000000000000000000000000000000081526004016116d7906125f2565b60405180910390fd5b8073ffffffffffffffffffffffffffffffffffffffff1660008054906101000a900473ffffffffffffffffffffffffffffffffffffffff1673ffffffffffffffffffffffffffffffffffffffff167f8be0079c531659141344cd1fd0a4f28419497f9722a3daafe3b4186f6b6457e060405160405180910390a3806000806101000a81548173ffffffffffffffffffffffffffffffffffffffff021916908373ffffffffffffffffffffffffffffffffffffffff16021790555050565b6000803390508091505090565b8280546117b69061231a565b90600052602060002090601f0160209004810192826117d8576000855561181f565b82601f106117f157805160ff191683800117855561181f565b8280016001018555821561181f579182015b8281111561181e578251825591602001919060010190611803565b5b50905061182c9190611830565b5090565b5b80821115611849576000816000905550600101611831565b5090565b6000604051905090565b600080fd5b600080fd5b6000819050919050565b61187481611861565b811461187f57600080fd5b50565b6000813590506118918161186b565b92915050565b6000602082840312156118ad576118ac611857565b5b60006118bb84828501611882565b91505092915050565b600073ffffffffffffffffffffffffffffffffffffffff82169050919050565b60006118ef826118c4565b9050919050565b6118ff816118e4565b82525050565b600060208201905061191a60008301846118f6565b92915050565b600061192b826118c4565b9050919050565b61193b81611920565b811461194657600080fd5b50565b60008135905061195881611932565b92915050565b60006020828403121561197457611973611857565b5b600061198284828501611949565b91505092915050565b61199481611861565b82525050565b60006040820190506119af60008301856118f6565b6119bc602083018461198b565b9392505050565b60006020820190506119d8600083018461198b565b92915050565b6119e7816118e4565b81146119f257600080fd5b50565b600081359050611a04816119de565b92915050565b600080fd5b600080fd5b6000601f19601f8301169050919050565b7f4e487b7100000000000000000000000000000000000000000000000000000000600052604160045260246000fd5b611a5d82611a14565b810181811067ffffffffffffffff82111715611a7c57611a7b611a25565b5b80604052505050565b6000611a8f61184d565b9050611a9b8282611a54565b919050565b600067ffffffffffffffff821115611abb57611aba611a25565b5b611ac482611a14565b9050602081019050919050565b82818337600083830152505050565b6000611af3611aee84611aa0565b611a85565b905082815260208101848484011115611b0f57611b0e611a0f565b5b611b1a848285611ad1565b509392505050565b600082601f830112611b3757611b36611a0a565b5b8135611b47848260208601611ae0565b91505092915050565b600080600060608486031215611b6957611b68611857565b5b6000611b77868287016119f5565b935050602084013567ffffffffffffffff811115611b9857611b9761185c565b5b611ba486828701611b22565b925050604084013567ffffffffffffffff811115611bc557611bc461185c565b5b611bd186828701611b22565b9150509250925092565b60008060408385031215611bf257611bf1611857565b5b6000611c00858286016119f5565b9250506020611c11858286016119f5565b9150509250929050565b600080600080600080600060e0888a031215611c3a57611c39611857565b5b6000611c488a828b016119f5565b975050602088013567ffffffffffffffff811115611c6957611c6861185c565b5b611c758a828b01611b22565b965050604088013567ffffffffffffffff811115611c9657611c9561185c565b5b611ca28a828b01611b22565b955050606088013567ffffffffffffffff811115611cc357611cc261185c565b5b611ccf8a828b01611b22565b945050608088013567ffffffffffffffff811115611cf057611cef61185c565b5b611cfc8a828b01611b22565b93505060a088013567ffffffffffffffff811115611d1d57611d1c61185c565b5b611d298a828b01611b22565b92505060c0611d3a8a828b01611882565b91505092959891949750929550565b600060208284031215611d5f57611d5e611857565b5b6000611d6d848285016119f5565b91505092915050565b600081519050919050565b600082825260208201905092915050565b60005b83811015611db0578082015181840152602081019050611d95565b83811115611dbf576000848401525b50505050565b6000611dd082611d76565b611dda8185611d81565b9350611dea818560208601611d92565b611df381611a14565b840191505092915050565b60008115159050919050565b611e1381611dfe565b82525050565b6000610100820190508181036000830152611e34818b611dc5565b90508181036020830152611e48818a611dc5565b90508181036040830152611e5c8189611dc5565b90508181036060830152611e708188611dc5565b90508181036080830152611e848187611dc5565b9050611e9360a083018661198b565b611ea060c0830185611e0a565b611ead60e083018461198b565b9998505050505050505050565b600060208284031215611ed057611ecf611857565b5b600082013567ffffffffffffffff811115611eee57611eed61185c565b5b611efa84828501611b22565b91505092915050565b60008060408385031215611f1a57611f19611857565b5b6000611f28858286016119f5565b925050602083013567ffffffffffffffff811115611f4957611f4861185c565b5b611f5585828601611b22565b9150509250929050565b60008060408385031215611f7657611f75611857565b5b6000611f84858286016119f5565b9250506020611f9585828601611882565b9150509250929050565b6000819050919050565b6000611fc4611fbf611fba846118c4565b611f9f565b6118c4565b9050919050565b6000611fd682611fa9565b9050919050565b6000611fe882611fcb565b9050919050565b611ff881611fdd565b82525050565b7f596f752077696c6c20626520706169642066726f6d2074686520637573746f6d60008201527f65722061732070657220796f757220636861726765206e6f7700000000000000602082015250565b600061205a603983611d81565b915061206582611ffe565b604082019050919050565b60006040820190506120856000830184611fef565b81810360208301526120968161204d565b905092915050565b7f4e487b7100000000000000000000000000000000000000000000000000000000600052601160045260246000fd5b60006120d882611861565b91506120e383611861565b9250827fffffffffffffffffffffffffffffffffffffffffffffffffffffffffffffffff038211156121185761211761209e565b5b828201905092915050565b7f4f776e61626c653a2063616c6c6572206973206e6f7420746865206f776e6572600082015250565b6000612159602083611d81565b915061216482612123565b602082019050919050565b600060208201905081810360008301526121888161214c565b9050919050565b7f596f752068617665206265656e2068697265642062792074686520637573746f60008201527f6d65720000000000000000000000000000000000000000000000000000000000602082015250565b60006121eb602383611d81565b91506121f68261218f565b604082019050919050565b600060608201905061221660008301856118f6565b8181036020830152612227816121de565b905061223660408301846118f6565b9392505050565b7f54686520726964652069732063616e63656c6c6564206279207468652063757360008201527f746f6d6572000000000000000000000000000000000000000000000000000000602082015250565b6000612299602583611d81565b91506122a48261223d565b604082019050919050565b60006060820190506122c460008301856118f6565b81810360208301526122d58161228c565b90506122e460408301846118f6565b9392505050565b7f4e487b7100000000000000000000000000000000000000000000000000000000600052602260045260246000fd5b6000600282049050600182168061233257607f821691505b60208210811415612346576123456122eb565b5b50919050565b600081905092915050565b600061236282611d76565b61236c818561234c565b935061237c818560208601611d92565b80840191505092915050565b60006123948284612357565b915081905092915050565b7f4e487b7100000000000000000000000000000000000000000000000000000000600052603260045260246000fd5b60008190508160005260206000209050919050565b600081546123f08161231a565b6123fa818661234c565b94506001821660008114612415576001811461242657612459565b60ff19831686528186019350612459565b61242f856123ce565b60005b8381101561245157815481890152600182019150602081019050612432565b838801955050505b50505092915050565b600061246e82846123e3565b915081905092915050565b600061248482611861565b91507fffffffffffffffffffffffffffffffffffffffffffffffffffffffffffffffff8214156124b7576124b661209e565b5b600182019050919050565b600081546124cf8161231a565b6124d98186611d81565b945060018216600081146124f4576001811461250657612539565b60ff1983168652602086019350612539565b61250f856123ce565b60005b8381101561253157815481890152600182019150602081019050612512565b808801955050505b50505092915050565b600060608201905061255760008301866118f6565b818103602083015261256981856124c2565b9050612578604083018461198b565b949350505050565b7f4f776e61626c653a206e6577206f776e657220697320746865207a65726f206160008201527f6464726573730000000000000000000000000000000000000000000000000000602082015250565b60006125dc602683611d81565b91506125e782612580565b604082019050919050565b6000602082019050818103600083015261260b816125cf565b905091905056fea2646970667358221220c7ad3b19706478f9eee80713cae0c98fc6a7b91c527d70b7a775a3f67ab974cc64736f6c634300080c0033",
  "immutableReferences": {},
  "source": "// SPDX-License-Identifier: UNLICENSED\r\n\r\npragma solidity >= 0.4.0 < 0.9.0;\r\nimport './Ownable.sol';\r\nimport './SafeMath.sol';\r\n\r\n// File: openzeppelin-solidity/contracts/math/SafeMath.sol\r\n/**\r\n * @title SafeMath\r\n * @dev Unsigned math operations with safety checks that revert on error\r\n */\r\ncontract Driver is Ownable {\r\n    \r\n    //Main Info Variables\r\n    \r\n    using SafeMath for uint256;\r\n    address[] public driverList ;\r\n    address[] public CustomdriverList ;\r\n    address payable owneradd;\r\n    \r\n    \r\n    // Profile Structure\r\n    struct  Profile {\r\n        // address driverID;\r\n        string fName;\r\n        string lName;\r\n        string city;\r\n        string carName;\r\n        string carType;\r\n        uint256 payPerKmINwei;\r\n        bool isEngaged;\r\n        uint256 NoOfRides;\r\n    }\r\n\r\n    \r\n    //Set Owner to get Payed\r\n    function setPayableOwner() public onlyOwner{\r\n        address owner_payable = owner();\r\n        owneradd = payable(owner_payable);\r\n    }\r\n\r\n    //Create Profile \r\n    mapping(address => Profile) public profile;\r\n     \r\n    // Main Function for Adding Driver Details -- payable\r\n    \r\n    function addYourProfile(address driver,string memory ifname,string memory ilname,string memory icity,string memory icarName,string memory icarType,uint256  ipayPerKmINwei) public  payable{\r\n        // Push addresses of driver to the list of drivers\r\n        driverList.push(driver);\r\n       \r\n        //Use the addresses and fill up the profile in struct\r\n        profile[driver].fName=ifname;\r\n        profile[driver].lName=ilname;\r\n        profile[driver].city=icity;\r\n        profile[driver].carName=icarName;\r\n        profile[driver].carType=icarType;\r\n        profile[driver].payPerKmINwei=ipayPerKmINwei;\r\n        profile[driver].isEngaged=false;\r\n        \r\n        owneradd.transfer(5000000000000000000);\r\n        \r\n    }   \r\n    \r\n    // 1 ether = 1000000000000000000 wei (18 zeros)\r\n    \r\n    //Get driver count (For User Contract)\r\n    function getDriverCount() public view returns(uint256){\r\n        return driverList.length;\r\n    }\r\n    \r\n    //Update Per kilometer charge -- payable\r\n    function updatePerkmCharge(address driver,uint256 ipayPerKmINwei) public payable{\r\n        profile[driver].payPerKmINwei=ipayPerKmINwei; \r\n        owneradd.transfer(1000000000000000000);\r\n    }\r\n    \r\n    //Update carType and carName -- payable\r\n    function updateCarDetails(address driver,string memory icarName,string memory icarType) public payable{\r\n        profile[driver].carName = icarName;\r\n        profile[driver].carType = icarType;\r\n        owneradd.transfer(1000000000000000000);\r\n    }\r\n    \r\n    //Update City Details -- payable\r\n     function updateCityDetails(address driver,string  memory icity) public payable{\r\n        profile[driver].city = icity;\r\n        owneradd.transfer(1000000000000000000);\r\n    }\r\n    \r\n    //Events to fetch data\r\n     event LogofDrivers(address driver,string ifname,uint256 charges);\r\n    \r\n    //Function to get all Drivers in your City(For User Contract)\r\n    function driverLoop(string memory _city) public{\r\n        for(uint256 i=0;i<driverList.length;i++){\r\n            if(keccak256(abi.encodePacked(profile[driverList[i]].city)) == keccak256(abi.encodePacked(_city))){\r\n                CustomdriverList.push(driverList[i]);\r\n            }\r\n        }\r\n        for(uint256 i=0;i<CustomdriverList.length;i++){\r\n            emit LogofDrivers(CustomdriverList[i], profile[CustomdriverList[i]].fName,profile[CustomdriverList[i]].payPerKmINwei);\r\n        }        \r\n    }\r\n    \r\n    //Event for driver\r\n    event NotifyDriver(address driver,string message,address customer);\r\n    event NotifyDriverPayment(address driver,string message);\r\n    \r\n    //User Function to End Journey and set Status as free from engaged -- Transaction from User to Driver\r\n    function EndJourney(address payable  account) payable public returns(address ,uint256){ \r\n        emit NotifyDriverPayment(account,\"You will be paid from the customer as per your charge now\");\r\n        profile[account].isEngaged = false;\r\n        profile[account].NoOfRides += 1;\r\n\r\n    }\r\n    \r\n    //User function to engage and call driver\r\n    function EngageDriver(address driver_add,address cust_add) public {\r\n        profile[driver_add].isEngaged = true;\r\n        emit NotifyDriver(driver_add,\"You have been hired by the customer\",cust_add);\r\n    }\r\n        \r\n    // Get driver balance\r\n    function showBal(address add) public view returns(uint256){\r\n        // return msg.sender.balance;\r\n        return add.balance;\r\n    }\r\n    \r\n    //If the Ride is cancelled\r\n    function cancelRide(address driver_add,address cust_add) public{\r\n        profile[driver_add].isEngaged = false;\r\n        emit NotifyDriver(driver_add,\"The ride is cancelled by the customer\",cust_add);\r\n    }\r\n    \r\n    //Self Destruct\r\n      function kill() public onlyOwner{\r\n            selfdestruct(payable(msg.sender));\r\n    }   \r\n}",
  "sourcePath": "/run/media/kaushtubh/New Volume/blockchain stuff/DESIGN THINKING PROJECT/Chare/contracts/Driver.sol",
  "compiler": {
    "name": "solc",
    "version": "0.8.12+commit.f00d7308.Emscripten.clang"
  },
  "schemaVersion": "3.4.6",
  "updatedAt": "2022-03-30T14:32:30.143Z",
  "devdoc": {
    "details": "Unsigned math operations with safety checks that revert on error",
    "kind": "dev",
    "methods": {
      "owner()": {
        "details": "Returns the address of the current owner."
      },
      "renounceOwnership()": {
        "details": "Leaves the contract without owner. It will not be possible to call `onlyOwner` functions anymore. Can only be called by the current owner. NOTE: Renouncing ownership will leave the contract without an owner, thereby removing any functionality that is only available to the owner."
      },
      "transferOwnership(address)": {
        "details": "Transfers ownership of the contract to a new account (`newOwner`). Can only be called by the current owner."
      }
    },
    "title": "SafeMath",
    "version": 1
  },
  "userdoc": {
    "kind": "user",
    "methods": {},
    "version": 1
  }
}