{
  "contractName": "User",
  "abi": [
    {
      "anonymous": false,
      "inputs": [
        {
          "indexed": true,
          "internalType": "address",
          "name": "previousOwner",
          "type": "address"
        },
        {
          "indexed": true,
          "internalType": "address",
          "name": "newOwner",
          "type": "address"
        }
      ],
      "name": "OwnershipTransferred",
      "type": "event"
    },
    {
      "inputs": [],
      "name": "owner",
      "outputs": [
        {
          "internalType": "address",
          "name": "",
          "type": "address"
        }
      ],
      "stateMutability": "view",
      "type": "function"
    },
    {
      "inputs": [],
      "name": "renounceOwnership",
      "outputs": [],
      "stateMutability": "nonpayable",
      "type": "function"
    },
    {
      "inputs": [
        {
          "internalType": "address",
          "name": "newOwner",
          "type": "address"
        }
      ],
      "name": "transferOwnership",
      "outputs": [],
      "stateMutability": "nonpayable",
      "type": "function"
    },
    {
      "inputs": [
        {
          "internalType": "address",
          "name": "contract_add",
          "type": "address"
        }
      ],
      "name": "setDriverAddress",
      "outputs": [],
      "stateMutability": "nonpayable",
      "type": "function"
    },
    {
      "inputs": [],
      "name": "setPayableOwner",
      "outputs": [],
      "stateMutability": "nonpayable",
      "type": "function"
    },
    {
      "inputs": [
        {
          "internalType": "string",
          "name": "city",
          "type": "string"
        }
      ],
      "name": "findDriverbyCity",
      "outputs": [],
      "stateMutability": "nonpayable",
      "type": "function"
    },
    {
      "inputs": [],
      "name": "totalDrivers",
      "outputs": [
        {
          "internalType": "uint256",
          "name": "",
          "type": "uint256"
        }
      ],
      "stateMutability": "view",
      "type": "function"
    },
    {
      "inputs": [],
      "name": "getDriverinLogs",
      "outputs": [],
      "stateMutability": "nonpayable",
      "type": "function"
    },
    {
      "inputs": [
        {
          "internalType": "address",
          "name": "driver_add",
          "type": "address"
        }
      ],
      "name": "callDriver",
      "outputs": [],
      "stateMutability": "payable",
      "type": "function"
    },
    {
      "inputs": [
        {
          "internalType": "address payable",
          "name": "driver_add",
          "type": "address"
        }
      ],
      "name": "payMoney",
      "outputs": [
        {
          "internalType": "address",
          "name": "",
          "type": "address"
        },
        {
          "internalType": "uint256",
          "name": "",
          "type": "uint256"
        }
      ],
      "stateMutability": "payable",
      "type": "function"
    },
    {
      "inputs": [
        {
          "internalType": "address",
          "name": "driver_add",
          "type": "address"
        },
        {
          "internalType": "address",
          "name": "cust",
          "type": "address"
        }
      ],
      "name": "cancelYourRide",
      "outputs": [],
      "stateMutability": "nonpayable",
      "type": "function"
    },
    {
      "inputs": [],
      "name": "kill",
      "outputs": [],
      "stateMutability": "nonpayable",
      "type": "function"
    }
  ],
  "bytecode": "0x608060405234801561001057600080fd5b5060006100216100c460201b60201c565b9050806000806101000a81548173ffffffffffffffffffffffffffffffffffffffff021916908373ffffffffffffffffffffffffffffffffffffffff1602179055508073ffffffffffffffffffffffffffffffffffffffff16600073ffffffffffffffffffffffffffffffffffffffff167f8be0079c531659141344cd1fd0a4f28419497f9722a3daafe3b4186f6b6457e060405160405180910390a3506100d1565b6000803390508091505090565b611244806100e06000396000f3fe6080604052600436106100a75760003560e01c80639425634e116100645780639425634e1461016957806399fa753b14610180578063a3c75a24146101ab578063c803e746146101d4578063ef3ae8b6146101fd578063f2fde38b14610226576100a7565b80630a96757b146100ac5780631015817d146100dd57806341c0e1b5146100f45780636e5da39b1461010b578063715018a6146101275780638da5cb5b1461013e575b600080fd5b6100c660048036038101906100c19190610cd5565b61024f565b6040516100d4929190610d3c565b60405180910390f35b3480156100e957600080fd5b506100f261033f565b005b34801561010057600080fd5b506101096103cf565b005b61012560048036038101906101209190610d91565b61047d565b005b34801561013357600080fd5b5061013c610580565b005b34801561014a57600080fd5b506101536106d3565b6040516101609190610dbe565b60405180910390f35b34801561017557600080fd5b5061017e6106fc565b005b34801561018c57600080fd5b506101956107e1565b6040516101a29190610dd9565b60405180910390f35b3480156101b757600080fd5b506101d260048036038101906101cd9190610d91565b610879565b005b3480156101e057600080fd5b506101fb60048036038101906101f69190610df4565b610952565b005b34801561020957600080fd5b50610224600480360381019061021f9190610e99565b6109e5565b005b34801561023257600080fd5b5061024d60048036038101906102489190610d91565b6109fb565b005b6000808273ffffffffffffffffffffffffffffffffffffffff166108fc479081150290604051600060405180830381858888f19350505050158015610298573d6000803e3d6000fd5b50600360009054906101000a900473ffffffffffffffffffffffffffffffffffffffff1673ffffffffffffffffffffffffffffffffffffffff166320c88739846040518263ffffffff1660e01b81526004016102f49190610ef5565b60408051808303816000875af1158015610312573d6000803e3d6000fd5b505050506040513d601f19601f820116820180604052508101906103369190610f51565b91509150915091565b600360009054906101000a900473ffffffffffffffffffffffffffffffffffffffff1673ffffffffffffffffffffffffffffffffffffffff1663a25d783960016040518263ffffffff1660e01b815260040161039b9190611098565b600060405180830381600087803b1580156103b557600080fd5b505af11580156103c9573d6000803e3d6000fd5b50505050565b6103d7610bbd565b73ffffffffffffffffffffffffffffffffffffffff1660008054906101000a900473ffffffffffffffffffffffffffffffffffffffff1673ffffffffffffffffffffffffffffffffffffffff1614610464576040517f08c379a000000000000000000000000000000000000000000000000000000000815260040161045b90611106565b60405180910390fd5b3373ffffffffffffffffffffffffffffffffffffffff16ff5b600260009054906101000a900473ffffffffffffffffffffffffffffffffffffffff1673ffffffffffffffffffffffffffffffffffffffff166108fc670de0b6b3a76400009081150290604051600060405180830381858888f193505050501580156104ed573d6000803e3d6000fd5b50600360009054906101000a900473ffffffffffffffffffffffffffffffffffffffff1673ffffffffffffffffffffffffffffffffffffffff16636e79c1a782336040518363ffffffff1660e01b815260040161054b929190611126565b600060405180830381600087803b15801561056557600080fd5b505af1158015610579573d6000803e3d6000fd5b5050505050565b610588610bbd565b73ffffffffffffffffffffffffffffffffffffffff1660008054906101000a900473ffffffffffffffffffffffffffffffffffffffff1673ffffffffffffffffffffffffffffffffffffffff1614610615576040517f08c379a000000000000000000000000000000000000000000000000000000000815260040161060c90611106565b60405180910390fd5b600073ffffffffffffffffffffffffffffffffffffffff1660008054906101000a900473ffffffffffffffffffffffffffffffffffffffff1673ffffffffffffffffffffffffffffffffffffffff167f8be0079c531659141344cd1fd0a4f28419497f9722a3daafe3b4186f6b6457e060405160405180910390a360008060006101000a81548173ffffffffffffffffffffffffffffffffffffffff021916908373ffffffffffffffffffffffffffffffffffffffff160217905550565b60008060009054906101000a900473ffffffffffffffffffffffffffffffffffffffff16905090565b610704610bbd565b73ffffffffffffffffffffffffffffffffffffffff1660008054906101000a900473ffffffffffffffffffffffffffffffffffffffff1673ffffffffffffffffffffffffffffffffffffffff1614610791576040517f08c379a000000000000000000000000000000000000000000000000000000000815260040161078890611106565b60405180910390fd5b600061079b6106d3565b905080600260006101000a81548173ffffffffffffffffffffffffffffffffffffffff021916908373ffffffffffffffffffffffffffffffffffffffff16021790555050565b6000600360009054906101000a900473ffffffffffffffffffffffffffffffffffffffff1673ffffffffffffffffffffffffffffffffffffffff16632be17d266040518163ffffffff1660e01b8152600401602060405180830381865afa158015610850573d6000803e3d6000fd5b505050506040513d601f19601f82011682018060405250810190610874919061114f565b905090565b610881610bbd565b73ffffffffffffffffffffffffffffffffffffffff1660008054906101000a900473ffffffffffffffffffffffffffffffffffffffff1673ffffffffffffffffffffffffffffffffffffffff161461090e576040517f08c379a000000000000000000000000000000000000000000000000000000000815260040161090590611106565b60405180910390fd5b80600360006101000a81548173ffffffffffffffffffffffffffffffffffffffff021916908373ffffffffffffffffffffffffffffffffffffffff16021790555050565b600360009054906101000a900473ffffffffffffffffffffffffffffffffffffffff1673ffffffffffffffffffffffffffffffffffffffff16637ef01b7883836040518363ffffffff1660e01b81526004016109af929190611126565b600060405180830381600087803b1580156109c957600080fd5b505af11580156109dd573d6000803e3d6000fd5b505050505050565b8181600191906109f6929190610bca565b505050565b610a03610bbd565b73ffffffffffffffffffffffffffffffffffffffff1660008054906101000a900473ffffffffffffffffffffffffffffffffffffffff1673ffffffffffffffffffffffffffffffffffffffff1614610a90576040517f08c379a0000000000000000000000000000000000000000000000000000000008152600401610a8790611106565b60405180910390fd5b600073ffffffffffffffffffffffffffffffffffffffff168173ffffffffffffffffffffffffffffffffffffffff161415610b00576040517f08c379a0000000000000000000000000000000000000000000000000000000008152600401610af7906111ee565b60405180910390fd5b8073ffffffffffffffffffffffffffffffffffffffff1660008054906101000a900473ffffffffffffffffffffffffffffffffffffffff1673ffffffffffffffffffffffffffffffffffffffff167f8be0079c531659141344cd1fd0a4f28419497f9722a3daafe3b4186f6b6457e060405160405180910390a3806000806101000a81548173ffffffffffffffffffffffffffffffffffffffff021916908373ffffffffffffffffffffffffffffffffffffffff16021790555050565b6000803390508091505090565b828054610bd690610fc0565b90600052602060002090601f016020900481019282610bf85760008555610c3f565b82601f10610c1157803560ff1916838001178555610c3f565b82800160010185558215610c3f579182015b82811115610c3e578235825591602001919060010190610c23565b5b509050610c4c9190610c50565b5090565b5b80821115610c69576000816000905550600101610c51565b5090565b600080fd5b600080fd5b600073ffffffffffffffffffffffffffffffffffffffff82169050919050565b6000610ca282610c77565b9050919050565b610cb281610c97565b8114610cbd57600080fd5b50565b600081359050610ccf81610ca9565b92915050565b600060208284031215610ceb57610cea610c6d565b5b6000610cf984828501610cc0565b91505092915050565b6000610d0d82610c77565b9050919050565b610d1d81610d02565b82525050565b6000819050919050565b610d3681610d23565b82525050565b6000604082019050610d516000830185610d14565b610d5e6020830184610d2d565b9392505050565b610d6e81610d02565b8114610d7957600080fd5b50565b600081359050610d8b81610d65565b92915050565b600060208284031215610da757610da6610c6d565b5b6000610db584828501610d7c565b91505092915050565b6000602082019050610dd36000830184610d14565b92915050565b6000602082019050610dee6000830184610d2d565b92915050565b60008060408385031215610e0b57610e0a610c6d565b5b6000610e1985828601610d7c565b9250506020610e2a85828601610d7c565b9150509250929050565b600080fd5b600080fd5b600080fd5b60008083601f840112610e5957610e58610e34565b5b8235905067ffffffffffffffff811115610e7657610e75610e39565b5b602083019150836001820283011115610e9257610e91610e3e565b5b9250929050565b60008060208385031215610eb057610eaf610c6d565b5b600083013567ffffffffffffffff811115610ece57610ecd610c72565b5b610eda85828601610e43565b92509250509250929050565b610eef81610c97565b82525050565b6000602082019050610f0a6000830184610ee6565b92915050565b600081519050610f1f81610d65565b92915050565b610f2e81610d23565b8114610f3957600080fd5b50565b600081519050610f4b81610f25565b92915050565b60008060408385031215610f6857610f67610c6d565b5b6000610f7685828601610f10565b9250506020610f8785828601610f3c565b9150509250929050565b7f4e487b7100000000000000000000000000000000000000000000000000000000600052602260045260246000fd5b60006002820490506001821680610fd857607f821691505b60208210811415610fec57610feb610f91565b5b50919050565b600082825260208201905092915050565b60008190508160005260206000209050919050565b6000815461102581610fc0565b61102f8186610ff2565b9450600182166000811461104a576001811461105c5761108f565b60ff198316865260208601935061108f565b61106585611003565b60005b8381101561108757815481890152600182019150602081019050611068565b808801955050505b50505092915050565b600060208201905081810360008301526110b28184611018565b905092915050565b7f4f776e61626c653a2063616c6c6572206973206e6f7420746865206f776e6572600082015250565b60006110f0602083610ff2565b91506110fb826110ba565b602082019050919050565b6000602082019050818103600083015261111f816110e3565b9050919050565b600060408201905061113b6000830185610d14565b6111486020830184610d14565b9392505050565b60006020828403121561116557611164610c6d565b5b600061117384828501610f3c565b91505092915050565b7f4f776e61626c653a206e6577206f776e657220697320746865207a65726f206160008201527f6464726573730000000000000000000000000000000000000000000000000000602082015250565b60006111d8602683610ff2565b91506111e38261117c565b604082019050919050565b60006020820190508181036000830152611207816111cb565b905091905056fea264697066735822122035897be5df7237b3dcdcc6475e5c8d0f20bb4539bdd8379a2204d96d8e62cddb64736f6c634300080c0033",
  "immutableReferences": {},
  "source": "// SPDX-License-Identifier: UNLICENSED\r\n\r\npragma solidity >= 0.4.0 < 0.9.0;\r\nimport './Driver.sol';\r\nimport './Ownable.sol';\r\n\r\n\r\n\r\ncontract User is Ownable{\r\n    \r\n    \r\n    // Main variables\r\n    string private _city;\r\n    address payable owneradd;\r\n    Driver d;\r\n\r\n    // Set Driver Contract address\r\n    function setDriverAddress(address contract_add) public onlyOwner{\r\n        d = Driver(contract_add);\r\n    }\r\n\r\n    //Set Owner to get Payed\r\n    function setPayableOwner() public onlyOwner{\r\n        address ownerr = owner();\r\n        owneradd = payable(ownerr);\r\n        // emit nu(ownerr);\r\n    }\r\n\r\n    //Find drivers in your city (To give input in Driver Contract)\r\n    function findDriverbyCity(string calldata city) external{\r\n        _city=city;\r\n    }\r\n    \r\n    \r\n    //Get the count of all Drivers\r\n    function totalDrivers() public view returns(uint256){\r\n        return d.getDriverCount();\r\n    }\r\n\r\n    //Give city as input to driverLoop in Driver contract and get Drivers in Logs\r\n    function getDriverinLogs() public {\r\n        return d.driverLoop(_city);    \r\n    }\r\n    \r\n    //Call Selected driver\r\n    function callDriver(address driver_add) public payable{\r\n        owneradd.transfer(1000000000000000000);\r\n        return d.EngageDriver(driver_add,msg.sender);\r\n    }\r\n    \r\n\r\n    // Pay money to driver as per his kilometer charge\r\n    function payMoney(address payable driver_add) public payable returns(address,uint256){\r\n        driver_add.transfer(address(this).balance);\r\n        return d.EndJourney(driver_add);\r\n    }\r\n    \r\n    //To Cancel a ride\r\n    function cancelYourRide(address driver_add,address cust) public{\r\n        return d.cancelRide(driver_add,cust);\r\n    }\r\n    \r\n    \r\n    //Self Destruct\r\n      function kill() public onlyOwner{\r\n            selfdestruct(payable(msg.sender));\r\n    }\r\n    \r\n}\r\n\r\n",
  "sourcePath": "/run/media/kaushtubh/New Volume/blockchain stuff/DESIGN THINKING PROJECT/Chare/contracts/User.sol",
  "compiler": {
    "name": "solc",
    "version": "0.8.12+commit.f00d7308.Emscripten.clang"
  },
  "schemaVersion": "3.4.6",
  "updatedAt": "2022-03-30T14:32:30.174Z",
  "devdoc": {
    "kind": "dev",
    "methods": {
      "owner()": {
        "details": "Returns the address of the current owner."
      },
      "renounceOwnership()": {
        "details": "Leaves the contract without owner. It will not be possible to call `onlyOwner` functions anymore. Can only be called by the current owner. NOTE: Renouncing ownership will leave the contract without an owner, thereby removing any functionality that is only available to the owner."
      },
      "transferOwnership(address)": {
        "details": "Transfers ownership of the contract to a new account (`newOwner`). Can only be called by the current owner."
      }
    },
    "version": 1
  },
  "userdoc": {
    "kind": "user",
    "methods": {},
    "version": 1
  }
}